:108000005542200135D0085A824508023140000609
:108010003F4000000F9308249242080220012F8362
:108020009F4FC6870002F8233F4008000F930724A4
:108030009242080220011F83CF430002F92304412A
:108040002453B0125487B01212863F408680B0127B
:10805000D086B012B2813F42B0128284B0125084F6
:10806000B012E683B012A883B012E88632D23F4045
:10807000E803B0121A83B0121084F93F32D0F00036
:10808000FD3F3040B2870412044124533F40B4877F
:10809000B0128687B012D2833441304104120441B9
:1080A00024531F420002344130410412044124533E
:1080B0002183C44FFCFFC44EFDFF5F44FCFF3F9291
:1080C00016243F90090003341F9308242B3C3F9053
:1080D0000C0016243F9010001C24243C5F42FF102B
:1080E000C24F57005F42FE10C24F56001B3C5F421A
:1080F000FD10C24F57005F42FC10C24F5600123CA9
:108100005F42FB10C24F57005F42FA10C24F560049
:10811000093C5F42F910C24F57005F42F810C24F4E
:10812000560003435F44FDFF2F930E243F9003004E
:1081300003341F930624123C2F9209243F920A24F1
:108140000D3CC24358000A3CE2435800073CE2425F
:108150005800043CF2400600580003435F44FCFF13
:10816000824F000221533441304104120441245310
:108170005E435F43B012AA8034413041041204418F
:1081800024535E437F42B012AA803441304104122E
:10819000044124536E437F42B012AA8034413041DF
:1081A0000412044124536E427F42B012AA8034412B
:1081B00030410412044124537E427F42B012AA800F
:1081C000344130410412044124535E437F400C008B
:1081D000B012AA80344130410412044124536E434A
:1081E0007F400C00B012AA80344130410412044197
:1081F00024536E427F400C00B012AA8034413041BB
:108200000412044124537E427F400C00B012AA8025
:10821000344130410412044124535E437F40100036
:10822000B012AA80344130410412044124536E43F9
:108230007F401000B012AA80344130410412044142
:1082400024536E427F401000B012AA803441304166
:108250000412044124537E427F401000B012AA80D1
:10826000344130410412044124533E533F63FD2FF7
:10827000344130410412044124533150FAFF844FF9
:10828000FCFF1F4200023F9218243F900900032C7C
:108290001F9308242D3C3F900C0017243F901000A2
:1082A0001E24263C1F44FCFF12C30F1012C30F10E4
:1082B000844FF8FF8443FAFF263C1F44FCFF0F5F06
:1082C000844FF8FF8443FAFF1E3C1E44FCFF0F4E10
:1082D0000F5F0F5E844FF8FF8443FAFF143C1F4486
:1082E000FCFF0F5F0F5F844FF8FF8443FAFF0B3CE6
:1082F0001F44FCFF12C30F1012C30F10844FF8FF6E
:108300008443FAFF03431E44F8FF1F44FAFFB012F0
:108310006482315006003441304104120441245338
:108320003182844FFCFF1F4200023F9213243F9092
:108330000900032C1F9308241F3C3F900C001024BD
:108340003F9010001324183CB440FA00F8FF844317
:10835000FAFF183CB440D007F8FF8443FAFF123C00
:10836000B440B80BF8FF8443FAFF0C3CB440A00FB4
:10837000F8FF8443FAFF063CB440FA00F8FF844358
:10838000FAFF03438443F6FF083C1E44F8FF1F44F2
:10839000FAFFB01264829453F6FF9494FCFFF6FF48
:1083A000F42B3152344130410412044124535F42D2
:1083B00021007FF0FDFFC24F210034413041041203
:1083C000044124535F4221006FD3C24F2100344146
:1083D00030410412044124535F4221006FE3C24F35
:1083E0002100344130410412044124535F422100F2
:1083F0007FF0FEFFC24F210034413041041204419E
:1084000024535F4221005FD3C24F210034413041E9
:108410000412044124535F4221005FE3C24F210054
:10842000344130410412044124535F4221007FF063
:10843000FCFFC24F21003441304104120441245357
:108440005F4221007FD00300C24F21003441304100
:108450000412044124535F4221007FF0FCFFC24F0D
:1084600021005F4222007FD00300C24F22005F4202
:1084700026007FF0FCFFC24F2600B0122484344156
:1084800030410412044124532183844FFCFF5F4296
:108490001B007FD03000C24F1B005F421A007FD00C
:1084A0001000C24F1A005F421A007FF0DFFFC24F78
:1084B0001A001F44FCFF1F9303243F921224233C05
:1084C000F24080FF6100F24068006200C243630036
:1084D000E24264005F4261007FF0FEFFC24F610034
:1084E000133CF24080FF6100F24041006200F24024
:1084F00003006300E24264005F4261007FF0FEFF20
:10850000C24F6100013C03438243020221533441C4
:1085100030410412044124533441304104120441D7
:1085200024532183844FFCFF1F44FCFF4F4FC24F55
:10853000670003435F4203004F4F2FF30F93FA2767
:108540001F44FCFF4F4F4F4F215334413041041221
:108550000441245321835F426600C44FFCFFC4439F
:10856000FDFF1F44FCFF21533441304104120441FC
:1085700024535F4201005FD3C24F010034413041B8
:108580000412044124535F4201007FF0FEFFC24FFA
:108590000100344130410412044124532183844FAB
:1085A000FCFF9244FCFF02028493FCFF0320B01204
:1085B0008085023CB0126C852153344130410F124A
:1085C0000E120D120C120412044134500A002183C1
:1085D0005F4265004F4F2FF20F930A245F426600FF
:1085E000C44FF4FF5F44F4FF5F53C44FF4FF0A3CF1
:1085F0001E4202025F4266008E120F930324B4C033
:10860000F0000000215334413C413D413E413F4197
:108610000013041204412453824304025F422600E3
:108620007FF0FBFFC24F26005F4222007FF0FBFF7E
:10863000C24F22005F4225007FF0FBFFC24F2500A2
:108640005F4224006FD2C24F24005F4223007FF0BC
:10865000FBFFC24F23005F4227006FD2C24F2700AB
:108660005F4221006FD2C24F2100344130410412D9
:10867000044124535F4226007FF0FBFFC24F2600D7
:108680005F4222007FF0FBFFC24F22005F422500C5
:108690007FF0FBFFC24F25005F4223007FF0FBFF0E
:1086A000C24F23005F4227007FF0FBFFC24F27002D
:1086B000344130410412044124535F4220004F4FA3
:1086C0000E4F2EF21F430E9301240F4334413041CD
:1086D0000412044124532183844FFCFF9244FCFF85
:1086E00004022153344130410412044124535F42B7
:1086F00025006FD2C24F250034413041041204419D
:1087000024535F4225007FF0FBFFC24F2500344118
:1087100030410F120E120D120C120412044134508B
:108720000A005F4223004F4F5E4225004E4E2EF25C
:108730000FFE0F9307241F4204020F9303241F42CE
:1087400004028F12C243230034413C413D413E416B
:108750003F4100130412044124531F4220013FF003
:10876000FF00824F0602B240805A2001344130415E
:108770000412044124531F4206023FD0005A824F84
:108780002001344130410B120B4F6F4B4F930624A5
:108790001B538F11B0121C850F93F737CB9300003A
:1087A00005203F400A00B0121C85013C3F433B417D
:0487B0003041001341
:1087B4002D2D20627574746F6E20707265737365ED
:0287C40064004F
:10FFE0008280828012878280828082808280BE8529
:10FFF0008280828082808280828082808280008073
:040000030000800079
:00000001FF
